:400000000000002011000000D9150000D915000080B500AF054A054B1B6843F020031360034A044B1B68136001F00AFBE8460040BC760040FA46004001000000002000409B
:400040000100000000200140010000000048004001000000004801400100000001000000080002230000087608000323000010760800042300002876080005230000307607
:400080000500062300002070050007230000307005000823000060700500FE230000707010000A220000005140000B22000030511000FE220000F05100060D22000000008C
:4000C00080010E220000000800060F220000000A80011022000000188000112200000041800012220000004380001322000000478000FE22000000480700152300001052CB
:400100000600162300006052080017230000205B2000FE2300007064080019230000005180001A230000000680001B230000800680001C230000001480001D230000801439
:4001400080001E230000001680001F2300008016800020230000001A800021230000801A10002223000010501000232300000050800024230000004D800025230000804D11
:40018000800026230000004C800027230000804C8000282300008047800029230000004680002A230000804680002B230000004580002C230000804580002D2300000044A2
:4001C00080002E230000804480002F230000001B800030230000801B80003123000000158000322300008015800033230000801980003423000000178000352300008017F0
:40020000800036230000800980003723000000078000382300008007800039230000004980003A230000804980003B230000804880003C230000804380003D2300000042E4
:4002400080003E230000804280003F230000804180004023000000408000FE230000804010B5054C237833B9044B13B10448AFF300800123237010BD9881FF1F00000000DB
:40028000584C0000084B10B51BB108490848AFF300800848036803B910BD074B002BFBD0BDE81040184700BF000000009C81FF1F584C0000C880FF1F0000000080B582B0A8
:4002C00000AF01F0B9FA0346C3F549730133FB80FB8803F007039BB2002B37D1FB88B3F5407F10D21B4B1B78DB0003F1804303F5F0430433FA88D20892B2D20116490A4466
:4003000092B21A8022E0FB88B3F5407F1ED1134B1B68002B1AD0124B1B78184601F0AAFD0E4B1B68002B0BD00B4A0E4B104619464FF440531A4602F013FB084B00221A60BE
:40034000074B1B780121184601F04EFD00BF0837BD4680BD7089FF1F00000020D480FF1FCC81FF1F688AFF1F80B400AF054B01221A6000BF034B1B68002BFBD100BFBD4661
:4003800080BC7047D480FF1F80B487B000AFF860B9607A603B6000237B6100233B61FB687B6116E0BB683B610CE03B6AD9B20D4A7B69DB011A443B6913440A461A703B691C
:4003C00001333B613A693B689A42EEDD7B6901337B617A697B689A42E4DD00BF1C37BD4680BC7047688AFF1F80B582B002AF302300935D23112223210F20FFF7C5FF3023A0
:400400000093412319223F211220FFF7BDFF302300932523222223211220FFF7B5FF302300932F23252223212320FFF7ADFF302300932F2328222D212620FFF7A5FF302309
:4004400000932F232B2226212920FFF79DFF302300932F23312226212F20FFF795FF302300932F2334222D213220FFF78DFF302300932F23372223213520FFF785FF3023D6
:40048000009325234C2223213820FFF77DFF302300932923432226214120FFF775FF302300935D2322225B211220FFF76DFF302300935D23252251212320FFF765FF302373
:4004C00000935323282251212620FFF75DFF302300935A232B2251212920FFF755FF302300935A23312251212F20FFF74DFF302300935323342251213220FFF745FF30232E
:4005000000935D23372251213520FFF73DFF302300935D234C225B213820FFF735FF302300935A23432257214120FFF72DFF302300935D234F2223214D20FFF725FF3023CC
:4005400000932F23192229211520FFF71DFF302300933B23192233211520FFF715FF302300934D23192245211520FFF70DFF302300935723192251211520FFF705FF3023FB
:40058000009347231F2239211D20FFF7FDFE30230093412325223F212020FFF7F5FE302300932F231F2229211D20FFF7EDFE3023009357231F2251211D20FFF7E5FE3023FE
:4005C000009335232B2233211D20FFF7DDFE302300933B23252236212320FFF7D5FE302300934D232B224B211D20FFF7CDFE302300934A23252245212320FFF7C5FE302317
:4006000000933523372233212F20FFF7BDFE302300934D2337224B212F20FFF7B5FE302300934723372239213520FFF7ADFE3023009341233D223F213820FFF7A5FE3023C9
:4006400000933B233D2233213B20FFF79DFE302300934D233D2245213B20FFF795FE302300932F233D2229213B20FFF78DFE3023009357233D2251213B20FFF785FE3023D6
:4006800000932F2343222D213E20FFF77DFE302300935323432251213E20FFF775FE302300934723432239214120FFF76DFE30230093412349223F214420FFF765FE3023E3
:4006C00000933523462233214120FFF75DFE302300933B23492229214720FFF755FE302300934D2346224B214120FFF74DFE302300935723492245214720FFF745FE302308
:4007000000933D232A2239212920FFF73DFE302300933A232F2239212B20FFF735FE302300934723312239213020FFF72DFE3023009347232A2243212920FFF725FE302321
:40074000009347232F2246212B20FFF71DFE3F23009342232A223E212920FFF715FE00BFBD4680BD80B485B000AFF860B9601346FB712F21784AFB68DB011A44BB6813449B
:400780000A461A70FB685A1EBB68013B2F207249D2010A44134402461A70FB685A1EBB6801332F206C49D2010A44134402461A70FB685A1CBB68013B2F206749D2010A44F9
:4007C000134402461A70FB685A1CBB6801332F206149D2010A44134402461A70FB79022B1ED1BB6801332F205B49FA68D2010A44134402461A70FB68013B2F21564ADB016C
:400800001A44BB6813440A461A70FB6801332F21514ADB011A44BB6813440A461A7096E0FB79032B1ED1BB68013B2F204A49FA68D2010A44134402461A70FB68013B2F2113
:40084000454ADB011A44BB6813440A461A70FB6801332F21404ADB011A44BB6813440A461A7074E0FB79002B1ED1BB68013B2F203949FA68D2010A44134402461A70BB687B
:4008800001332F203449FA68D2010A44134402461A70FB68013B2F212F4ADB011A44BB6813440A461A7052E0FB79012B1ED1BB68013B2F202849FA68D2010A441344024694
:4008C0001A70BB6801332F202349FA68D2010A44134402461A70FB6801332F211E4ADB011A44BB6813440A461A7030E02F211A4AFB68DB011A44BB6813440A461A70BB68FB
:40090000013B2F201449FA68D2010A44134402461A70BB6801332F200F49FA68D2010A44134402461A70FB68013B2F210A4ADB011A44BB6813440A461A70FB6801332F21C1
:40094000054ADB011A44BB6813440A461A7000BF1437BD4680BC7047688AFF1F90B585B002AF786039607B68581E3B68591E7B685A1C3B68013300240094FFF705FD00BFDC
:400980000C37BD4690BD00BF80B483B000AF786039607B68122B01DC00232EE17B684B2B01DD002329E13B68262B01DC002324E13B68592B01DD00231FE17B68132B09D1AF
:4009C0003B683D2B02DD3B68422B01DD012314E1002312E17B681B2B01D101230DE17B68212B19D13B68312B02DD3B684E2B01DD012302E13B68362B04DD3B683D2B01DC1E
:400A00000123FAE03B68422B04DD3B68492B01DC0123F2E00023F0E07B68272B11D13B68312B02D03B684F2B01D10123E5E03B68362B04DD3B68492B01DC0123DDE000234D
:400A4000DBE07B682D2B09D13B68372B02DD3B68482B01DD0123D0E00023CEE07B68332B11D13B68312B02D03B684F2B01D10123C3E03B68362B04DD3B68492B01DC012382
:400A8000BBE00023B9E07B68392B09D13B683D2B02DD3B68422B01DD0123AEE00023ACE07B683F2B11D13B682B2B02DD3B68542B01DD0123A1E03B68302B04DD3B684F2BDD
:400AC00001DC012399E0002397E07B68452B19D13B68312B02DD3B684E2B01DD01238CE03B68362B04DD3B683D2B01DC012384E03B68422B04DD3B68492B01DC01237CE083
:400B000000237AE07B684B2B01D1012375E03B68272B02D03B68592B11D17B68212B02DD7B68442B01DD012367E07B68382B04DD7B683F2B01DC01235FE000235DE03B6864
:400B40002B2B02D03B68552B09D17B683E2B04DD7B68452B01DC01234FE000234DE03B68312B02D03B684F2B06D17B68452B01DC012342E0002340E03B68372B02D03B6858
:400B8000492B19D17B681A2B04DD7B68212B01DC012332E07B68262B04DD7B68392B01DC01232AE07B683E2B04DD7B68452B01DC012322E0002320E03B683D2B02D03B68FF
:400BC000432B19D17B681B2B02DD7B68442B01DD012312E07B68202B04DD7B68272B01DC01230AE07B68382B04DD7B683F2B01DC012302E0002300E0002318460C37BD46FF
:400C000080BC704780B582B000AF002001F052FC0346002B03D001F06DFC0346FB80B7F906303C2B03DC0223FB70FB7824E0B7F90630C72B03DD0323FB70FB781CE00020DC
:400C400001F0BAFD0346002B03D001F0D5FD0346BB80B7F904303C2B03DC0123FB70FB780AE0B7F90430C72B03DD0023FB70FB7802E00423FB70FB7818460837BD4680BDAD
:400C800080B584B000AFF860B9601346FB71FB79022B2FD1FB682D2B12D1BB68272B0FD1554B59221A60B968F868FFF757FE534B1868514B1B6802221946FFF753FD85E086
:400CC000BB68013B1946F868FFF75EFE0346002B7CD0494B1B68013B474A1360B968F868FFF73CFEBB68013B02221946F868FFF739FD6BE0FB79032B2FD1FB682D2B12D1C3
:400D0000BB68592B0FD13C4B27221A60B968F868FFF724FE394B1868374B1B6803221946FFF720FD52E0BB6801331946F868FFF72BFE0346002B49D02F4B1B6801332E4A0C
:400D40001360B968F868FFF709FEBB68013303221946F868FFF706FD38E0FB79002B19D1FB680133B9681846FFF70EFE0346002B2CD0224B1B680133204A1360B968F868A3
:400D8000FFF7ECFDFB6801330022B9681846FFF7E9FC1BE0FB79012B18D1FB68013BB9681846FFF7F1FD0346002B0FD0134B1B68013B124A1360B968F868FFF7CFFDFB68D6
:400DC000013B0122B9681846FFF7CCFC0B4B1A68094B1B681946104600F0D0F80346002B05D0074B1B780133DAB2054B1A7000BF1037BD4680BD00BFD080FF1FCC80FF1F96
:400E0000B481FF1F80B586B000AF0023FB6013237B612BE027233B6122E039697869FFF7B3FD0346002B18D03F21524A7B69DB011A443B6913440A461A707B697B603B69EB
:400E4000BB604D4AFB68DB0013443A1D92E8030083E80300FB680133FB603B6902333B613B69592BD9DD7B6902337B617B69212BD0DD39237B6134E027233B612BE03969F3
:400E80007869FFF781FD0346002B21D07B693F2B05D13B693D2B02DD3B69422B18DD3F21344A7B69DB011A443B6913440A461A707B697B603B69BB602F4AFB68DB00134406
:400EC0003A1D92E8030083E80300FB680133FB603B6902333B613B69592BD0DD7B6902337B617B694B2BC7DD23237B611AE03F21204A7B69DB01134431330A461A707B6962
:400F00007B603B69BB601C4AFB68DB0013443A1D92E8030083E80300FB680133FB607B6902337B617B69372BE1DD23237B611AE03F21104A7B69DB0113444F330A461A70A6
:400F40007B697B603B69BB600B4AFB68DB0013443A1D92E8030083E80300FB680133FB607B6902337B617B69372BE1DD00BF1837BD4680BD688AFF1FD081FF1F80B485B0A6
:400F800000AF786039600023FB6021E0154AFB6852F833207B689A4217D1124AFB68DB0013445A683B689A420FD10F4AFB6813441B7883F00103DBB2002B06D00A4AFB6818
:400FC000134401221A70012306E0FB680133FB60FB68F32BDADD002318461437BD4680BC704700BFD081FF1F7489FF1F80B582B000AF62B600F052FE01F072F901F04AFAAF
:4010000001F0F0FA01F0C8FB01F040F803461A462D4B1A704FF4804341F6FF720021012000F0C8FC03461A46284B1A70264B1878254B1A780523802101F056F8224B1B78F8
:4010400046F277520021184601F08EF81F4B1A781D4B1B781946104600F0AAFF1B4B1B780121184600F0C0FE00F016FC00F07EFB00F09AFD00F01EFD154800F0CDFCFFF704
:40108000B3F9FFF7BFFE134B1868134B1B6804221946FFF767FBFFF767F9FFF7B3FD0346FB710C4B18680C4B1B68FA791946FFF7E7FD0A4B1B78184600F034FEFFF754F97C
:4010C000372001F08BF8E8E77089FF1FCC81FF1FBD020000CC80FF1FD080FF1FB481FF1F80B582B000AF786039603A680021786801F041FC00BF0837BD4680BD80B584B0EB
:4011000000AFF860B9607A607A68B968F86801F027FC00BF1037BD4680BD00BF80B483B000AF0346FB71FEE780B582B000AF454B00221A60444B10221A70444B01221A70C0
:40114000434B00221A70434B4FF400721A80424B01221A70414B03221A70414B414A92B21A80414B47F608021A80404B00221A803F4B4FF480421A803E4B09221A703E4B4A
:401180000C221A703D4B14221A703D4B18221A70BFF35F8F3B4B01221A70BFF35F8F00BF2C4B1B889BB2002BFAD100237B600DE07B68DA00344B13441946344A7B6852F8CC
:4011C00023309BB20B807B6801337B607B683F2BEED9BFF35F8F2B4B01221A70BFF35F8F00BF2B4B1B78DBB203F00103002BF8D100BF284B1B78DBB203F00103002BF8D1DE
:4012000000BF254B1B78DBB203F00103002BF8D100BF224B1B78DBB203F00103002BF8D100BF1F4B1B78DBB203F00103002BF8D106224FF090411B48FFF760FF00BF08371B
:40124000BD4680BDB881FF1F007600401070004019700040007800400278004003780040047800406000000006780040047600400676004029700040397000406970004040
:4012800079700040147000400C780040604C000018700040287000403870004068700040787000401051014080B582B000AF404B07221A803F4B18221A703F4B8C221A80E3
:4012C0003E4B18221A7008223D493E48FFF716FF3D4B02221A704FF0402308221A703B4B03221A703A4B3B4A1278D2B21A703A4B40F241221A80394B41F251221A80002362
:40130000FB7019237B6014E0FB785B00DAB2344B1B78DBB203F00103DBB21343DBB203F00303FB704FF4F07001F0DEFA7B68013B7B607B68002B02D0FB78032BE4D17B68F4
:40134000002B02D10320FFF7E9FE264B4FF480721A80244B07221A70234B00221A70234B48221A701F4B00221A70214B02221A70204B04221A70204A1F4B1B78DBB243F01F
:401380000303DBB213701D4A1C4B1B78DBB243F00303DBB213701A4A194B1B78DBB263F07F03DBB2137000BF0837BD4680BD00BF804000408240004084400040864000400A
:4013C00084130048004100400043004000420040A146004008010049224200402042004025420040044000400640004008400040014000400B400040A2430040A14300403B
:40140000A043004080B582B000AF274B1B78FB71264B1B78BB71264B1B787B71254AFB7903F00703DBB21370234AFB791B09DBB213701E4ABB7943F00303DBB213701C4A92
:401440007B7943F00303DBB213701C4B30221A701B4B40221A701B4B40221A701A4B40221A701A4B40221A70194B02221A70194B20221A70184B01221A70184B20221A7025
:40148000174B02221A700A2000F0CAFE084A7B791370064ABB791370124B44221A7000BF0837BD4680BD00BFCF010049F8460040F94600406E5800406F5800401D5100404F
:4014C0000159004003590040095900400B590040205B0040235B0040285B00402B5B0040585B00407658004080B500AF72B62B4B61221A70FFF7D8FE284B01221A70284A80
:40150000274B1B78DBB243F02403DBB21370FFF70BFE04212348FFF7E3FD234A224B1B78DBB243F00203DBB21370204A1F4B1B78DBB243F00203DBB213701D4A1C4B1B786B
:40154000DBB243F04003DBB213701A4A194B1B78DBB243F01003DBB21370082216491748FFF7CCFD082216491648FFF7C7FD0A2215491648FFF7C2FD154A154B1B78DBB256
:4015800043F00803DBB21370FFF73CFF0E2208491048FFF7B3FD00BF80BD00BF00480040E8460040007600400350014013500140A0430040C243004068130048C251004010
:4015C0007013004812510040781300482051004022430040B043004080B500AF01F094F903461B680C2B00D1FEE7FEE780B584B000AF7860104B1A687B6813441A460F4B60
:40160000D31AB3F5805F09DC0B4B1B68FB600A4B1A687B681344084A136007E001F074F902460C2313604FF0FF33FB60FB6818461037BD4680BD00BFD880FF1F88BAFF1F6F
:4016400080B586B000AF224B7B61224B3B61204B7B6135E03B691B68FB603B695B68BB603B699B683B6000237B600CE0FB681A68BB681A60BB680433BB60FB680433FB6086
:401680007B6804337B607A683B689A42EED13B69DB683B6000237B6008E0BB6800221A60BB680433BB607B6804337B607A683B689A42F2D13B6910333B617B69013B7B61E1
:4016C0007B69002BC6D101F025F9FFF78FFCFEE701000000B44E000080B582B000AF194B194A1A60194A194B1B6843F40073136000237B600FE07B68032B04D8144A7B68F3
:4017000052F8233000E0134B13497A6841F822307B6801337B607B682F2BECD90F4B1B78DAB20F4B1A700F4B0B4A1A60FFF7DCFE00F02CFB0C4B00221A6000BF0837BD46B0
:4017400080BD00BF0CED00E00004FA0514ED00E000000000D91500000080FF1FBC760040C480FF1F08ED00E0C080FF1F80B500AF064B1B78002B04D100F00AF8034B0122F2
:401780001A7000F039F800BF80BD00BFBC81FF1F80B582B000AF154B1B78DBB223F03F03FB71124AFB7943F02103DBB21370104A0F4B1B78DBB243F00103DBB213700D4A68
:4017C0000C4B1B78DBB243F00103DBB2137040F2253000F021F840F2253000F03DF8262000F04AF800BF0837BD4680BD746500409A6500409B65004080B400AF054A054B1F
:401800001B78DBB263F07F03DBB2137000BFBD4680BC70477465004080B483B000AF0346FB80044AFB88138000BF0C37BD4680BC704700BF146A004080B400AF044B1B785D
:40184000044B1B889BB21846BD4680BC704700BF1A650040B46A004080B483B000AF0346FB80044AFB88138000BF0C37BD4680BC704700BF946A004080B483B000AF034667
:40188000FB80044AFB88138000BF0C37BD4680BC704700BF546A004080B500AF064B1B78002B04D100F00AF8034B01221A7000F031F800BF80BD00BFBD81FF1F80B582B048
:4018C00000AF124B1B78DBB223F03F03FB710F4AFB7943F00A03DBB213700D4A0C4B1B78DBB243F00103DBB21370A72000F022F8A72000F02FF8012000F03CF8282000F09D
:4019000049F800BF0837BD4680BD00BF756500409565004080B400AF054A054B1B78DBB263F07F03DBB2137000BFBD4680BC70477565004080B483B000AF0346FB71044AA6
:40194000FB79137000BF0C37BD4680BC704700BF0565004080B483B000AF0346FB71044AFB79137000BF0C37BD4680BC704700BF4565004080B483B000AF0346FB71044A45
:40198000FB79137000BF0C37BD4680BC704700BF2565004080B483B000AF0346FB71044AFB79137000BF0C37BD4680BC704700BF3565004090B585B002AF044608461146F4
:4019C0001A462346FB710346BB710B46BB8013467B80104B00221A700E4B1878BA79F9790023019300230093002300F0FFFA094B1B787A88B988184600F09EFA054B1B785C
:401A00000021184600F066FA024B1B7818460C37BD4690BDDC80FF1F80B582B000AF786000F03CF8786800F009F8072000F018F800F028F800BF0837BD4680BD80B485B0CB
:401A400000AF7860054B1B68FB60FB6840337A681A6000BF1437BD4680BC704708ED00E080B483B000AF0346FB71054AFB795B01DBB2137000BF0C37BD4680BC704700BFF9
:401A800000E400E080B400AF034B01221A6000BFBD4680BC704700BF00E100E080B400AF034B01221A6000BFBD4680BC704700BF80E100E080B500AF064B1B78002B04D114
:401AC00000F00AF8034B01221A7000F02DF800BF80BD00BFBE81FF1F80B582B000AF104B1B78DBB223F03F03FB710D4AFB7943F00803DBB213700B4A0A4B1B78DBB243F064
:401B00000103DBB21370062000F01EF8062000F02BF8062000F038F800BF0837BD4680BD7B6500409465004080B400AF054A054B1B78DBB263F07F03DBB2137000BFBD4606
:401B400080BC70477B65004080B483B000AF0346FB71044AFB79137000BF0C37BD4680BC704700BF0465004080B483B000AF0346FB71044AFB79137000BF0C37BD4680BC91
:401B8000704700BF4465004080B483B000AF0346FB71044AFB79137000BF0C37BD4680BC704700BF2465004080B500AF064B1B78002B04D100F00AF8034B01221A7000F091
:401BC0002DF800BF80BD00BFBF81FF1F80B582B000AF104B1B78DBB223F03F03FB710D4AFB7943F00803DBB213700B4A0A4B1B78DBB243F00103DBB21370112000F01EF8F4
:401C0000112000F02BF8112000F038F800BF0837BD4680BD766500409765004080B400AF054A054B1B78DBB263F07F03DBB2137000BFBD4680BC70477665004080B483B0BC
:401C400000AF0346FB71044AFB79137000BF0C37BD4680BC704700BF0765004080B483B000AF0346FB71044AFB79137000BF0C37BD4680BC704700BF4765004080B483B03E
:401C800000AF0346FB71044AFB79137000BF0C37BD4680BC704700BF2765004080B500AF064B1B78002B04D100F00AF8034B01221A7000F01BF800BF80BD00BFC081FF1F26
:401CC00080B400AF064B06221A70064B47221A70054B00221A7000BFBD4680BC704700BF26650040366500408664004080B582B000AF00F001FE0346FB71094A084B1B7887
:401D0000DBB243F01003DBB2137000F025F8FB79184600F0F5FD00BF0837BD4680BD00BF9664004080B483B000AF0346FB7100BF074B1B78DBB203F00403002BF8D1054A8F
:401D4000FB79137000BF0C37BD4680BC704700BF666400404664004080B400AF094A094B1B78DBB243F00203DBB21370064A064B1B78DBB243F00203DBB2137000BFBD4604
:401D800080BC7047A2430040B243004080B483B000AF134B7F221A70124B80221A707F23FB710CE0FB79DB0003F1804303F5F043FA79013AD2B21A70FB79013BFB71FB7937
:401DC000002BEFD1FB79DB0003F1804303F5F04300221A7000BF0C37BD4680BC704700BFE180FF1FE080FF1F80B485B000AF03460A46FB711346BB710123FB60FB79172B90
:401E00002FD8BB79002B0ED0FB791A01184B1344FA791101164A0A441278D2B242F02002D2B21A700DE0FB791A01114B1344FA7911010F4A0A441278D2B222F02002D2B251
:401E40001A70FB791A010A4B1344FA791101084A0A441278D2B242F00102D2B21A700023FB60FB6818461437BD4680BC704700BF1070004080B485B000AF0346FB71012337
:401E8000FB60FB79172B1DD8FB791A01104B1344FA7911010E4A0A441278D2B222F00102D2B21A70FB791A01094B1344FA791101074A0A441278D2B222F02002D2B21A70D1
:401EC0000023FB60FB6818461437BD4680BC70471070004080B485B000AF03460A46FB711346BB710123FB60FB79172B1BD8FB791A01104B13441B78DBB223F00E03FB72E6
:401F0000FB791A010B4B1344BA795200D2B252B202F00E0251B297F90B200A4352B2D2B21A700023FB60FB6818461437BD4680BC704700BF1070004080B485B000AF0346D9
:401F4000FB710B46BB8013467B800123FB60BB8841F6FF72934202D14FF40053BB807B8841F6FF72934202D14FF400537B80FB79172B17D8FB79DB0003F1804303F5EC437C
:401F80000433BB60BB68BA881A80FB79DB0003F1804303F5EC430633BB60BB687A881A800023FB60FB6818461437BD4680BC704780B485B000AF03460A46FB711346BB716E
:401FC0000123FB60FB79172B07D8FB791A01064B1344BA795A720023FB60FB6818461437BD4680BC704700BF1070004090B484B000AF0446084611461A462346FB71034604
:40200000BB710B467B7113463B710123FB60FB79172B34D8FB79DB0003F1804303F5EC43BA7902F07F02D1B27A79D201D2B20A43D2B21A70FB79DB0003F1804303F5EC43C9
:402040003A7E1201D1B23A7902F00F02D2B20A43D2B25A70FB79DB0003F1804303F5EC433A7F02F00F02D2B29A70FB79DB0003F1804303F5EC430022DA700023FB60FB684C
:4020800018461037BD4690BC704700BF80B582B000AFFF23FB7100F02FFC0346BB71104B1B78182B12D90F4B1B78FB710C4B1B78013BDAB20A4B1A70FB79DB0003F1804376
:4020C00003F5F0431B78DAB2064B1A70BB79184600F016FCFB7918460837BD4680BD00BFE080FF1FE180FF1F90B484B000AF0446084611461A462346FB710346BB800B46FA
:40210000BB711346FB700123FB6097F90730002B23DBBB8823F47F6323F00F039BB2002B1BD1FB79DB0003F1804303F5F043BB60BB68BA881A80FB79DB0003F1804303F532
:40214000F043BA799A70FB79DB0003F1804303F5F043FA78DA700023FB60FB6818461037BD4690BC704700BF80B485B000AF0346FB710B46BB8013467B800123FB6097F9FB
:402180000730002B17DBFB79DB0003F1804303F5F0430433BB60BB68BA881A80FB79DB0003F1804303F5F0430633BB60BB687A881A800023FB60FB6818461437BD4680BC3C
:4021C000704700BF80B483B000AF0346FB7101BE00BF0C37BD4680BC704700BF80B582B000AF786008E00C4B1B68184600F07CFB7B68A3F500437B607B68B3F5004FF2D876
:40220000064B1B687A6802FB03F3184600F06CFB00BF0837BD4680BDF480FF1FEC80FF1F80B582B000AF0346FB80FB88054A127802FB03F3184600F057FB00BF0837BD461C
:4022400080BD00BFF080FF1F80B584B000AF03463960FB710F4B1B68FB60FB791F2B02D90020FFF7AFFFFB7903F01F0310339B00FA6813441B68BB60FB7903F01F0310334F
:402280009B00FA6813443A681A60BB6818461037BD4680BD08ED00E080B582B000AF03460A46FB711346BB71BB79072B02D90020FFF788FFFB791F2B02D90020FFF782FF23
:4022C000FB7903F01F0303F1604303F56443BA795201D2B21A7000BF0837BD4680BD00BF80B500AF064B1B78002B04D100F00AF8034B01221A7000F029F800BF80BD00BF0D
:40230000C281FF1F80B500AF102000F051F907210120FFF7C1FF0A490120FFF795FF094A084B1B78DBB243F00603DBB21370082000F086F8044B00221A8000BF80BD00BF83
:40234000A52500000159004070BAFF1F80B582B000AF00F0D1FA0346FB712E4A2D4B1B78DBB243F00103DBB213702B4A2A4B1B78DBB243F00103DBB21370284A274B1B780C
:40238000DBB243F00203DBB21370254A244B1B78DBB243F00203DBB21370224B1B78BB71BB7943F00203BB71BB7943F00103BB711C4ABB7913701C4B18221A701B4A1B4B94
:4023C0001B78DBB243F04003DBB21370174A174B1B78DBB223F00303DBB21370144BC8221A70144B02221A70134A134B1B78DBB243F00803DBB213700A20FFF711FF0F4B98
:4024000002221A60FB79184600F07AFA00BF0837BD4680BDAB430040BB430040A1430040B14300400359004006590040055900400059004014460040275B004080E200E0B6
:4024400080B584B000AF0346FB71FB790A2B07D00C2B02D0082B06D008E0C223FB730BE08223FB7308E04223FB7305E0C223FB730020FFF7A7FE00BF054AFB7B1370FB799B
:40248000184600F04FF800BF1037BD4680BD00BF0259004080B400AF054A054B1B78DBB243F00103DBB2137000BFBD4680BC70470059004080B584B000AF0346FB710C4B8C
:4024C0001B78DBB203F00103FB73FB7B012B02D0FB79002BF3D0FB7B012B04D10120FFF79FFE034B1B78FB7B18461037BD4680BD0159004080B483B000AF084B1B88FB80F9
:40250000074B1B881BB29BB2FA88D31A9BB21BB218460C37BD4680BC704700BFA05B00406ABAFF1F80B584B000AF0346FB71FB790A2B08D00C2B02D0082B08D00BE04FF4A0
:402540008053FB600DE04FF48063FB6009E04FF48073FB6005E00023FB600020FFF732FE00BF0C4B00221A80FB6842F2107202FB03F303F6C413084A82FB0312D212DB1734
:40258000D31A064A1360064B00221A8000BF1037BD4680BD68BAFF1FAD8BDB686CBAFF1F6ABAFF1F80B400AF00BFBD4680BC704780B483B000AF0346FB710949084B1B783C
:4025C000DBB25AB297F9073023F007035BB213435BB2DBB20B7000BF0C37BD4680BC70470641004080B500AF064B1B78002B04D100F00AF8034B01221A7000F029F800BFE2
:4026000080BD00BFC381FF1F80B500AF102000F051F907210220FFF73FFE0A490220FFF713FE094A084B1B78DBB243F00603DBB21370082000F086F8044B00221A8000BF83
:4026400080BD00BFA9280000095900407ABAFF1F80B582B000AF00F04FF90346FB712E4A2D4B1B78DBB243F00203DBB213702B4A2A4B1B78DBB243F00203DBB21370284A7A
:40268000274B1B78DBB243F00103DBB21370254A244B1B78DBB243F00103DBB21370224B1B78BB71BB7943F00203BB71BB7943F00103BB711C4ABB7913701C4B18221A7059
:4026C0001B4A1B4B1B78DBB243F04003DBB21370174A174B1B78DBB223F00303DBB21370144BC8221A70144B02221A70134A134B1B78DBB243F00803DBB213700A20FFF734
:402700008FFD0F4B04221A60FB79184600F0F8F800BF0837BD4680BDAB430040BB430040A1430040B14300400B5900400E5900400D59004008590040164600402F5B004067
:4027400080E200E080B584B000AF0346FB71FB790A2B07D00C2B02D0082B06D008E0C223FB730BE08223FB7308E04223FB7305E0C223FB730020FFF725FD00BF054AFB7BD0
:402780001370FB79184600F04FF800BF1037BD4680BD00BF0A59004080B400AF054A054B1B78DBB243F00103DBB2137000BFBD4680BC70470859004080B584B000AF034645
:4027C000FB710C4B1B78DBB203F00103FB73FB7B012B02D0FB79002BF3D0FB7B012B04D10120FFF71DFD034B1B78FB7B18461037BD4680BD0959004080B483B000AF084BCC
:402800001B88FB80074B1B881BB29BB2FA88D31A9BB21BB218460C37BD4680BC704700BFA25B004078BAFF1F80B584B000AF0346FB71FB790A2B08D00C2B02D0082B08D09D
:402840000BE04FF48053FB600DE04FF48063FB6009E04FF48073FB6005E00023FB600020FFF7B0FC00BF0C4B00221A80FB6842F2107202FB03F303F6C413084A82FB03125D
:40288000D212DB17D31A064A1360064B00221A8000BF1037BD4680BD7CBAFF1FAD8BDB6874BAFF1F78BAFF1F80B400AF00BFBD4680BC704780B483B000AF0346FB7109491F
:4028C000084B1B78DBB25AB297F9073023F007035BB213435BB2DBB20B7000BF0C37BD4680BC7047024100400230800803D000BF01380046FCD17047EFF3108072B67047E2
:4029000080F31088704700BF014B1868704700BF5881FF1F0E4B70B51E460E4C0025E41AA410A54204D056F8253098470135F8E702F0AEFA084B094C1E46E41AA4100025FB
:40294000A54204D056F8253098470135F8E770BD9C4E00009C4E00009C4E0000A44E000010B5431E0A44914204D011F8014B03F8014FF8E710BD03460244934202D003F890
:40298000011BFAE770472DE9F04788B0149F002B1E461299B8BF03F1004327F02007B6BF1E4600232D23462F1446109DDDF84CA00B7003D0452F03D1013501E0032300E0C9
:4029C000022307AA049206AA03928DE828042246334600F0B9FB472F804602D1119BDB0728D5462F08EB050911D198F80030302B0AD1002200232046314602F0BDF818B97E
:402A0000C5F10105CAF80050DAF800309944002200232046314602F0AFF808B9302202E0CDF81C9006E0079B994503D9591C07911A70F8E74046079B159AC8EB030313600D
:402A400008B0BDE8F087034673B50029B8BF494203F8022BB4BF2D222B22092942701ADD0DF1070216460A2591FBF5F405FB1411092C01F1300102F8011D2146F4DC3031A0
:402A8000541E02F8011CB4421A460AD214F8012B03F8012BF7E71A463024214402F8024B5970101A02B070BD2DE9F04F91B00C46DDF8688016461F46054601F0DDF803680A
:402AC0001846099300F0AAFA00230E93D8F800300A90073323F0070303F1080294F81890D4F800B0C8F80020D3E90023C4E91223D4F84CA0D4F848802AF000430B934FF0BE
:402B0000FF32A74B40460B9902F068F8A0B94FF0FF32A34B40460B9902F042F860B9002200234046514602F031F810B12D2384F843309C4B9C4A0AE042465346404651465E
:402B400002F04CF8002800F09281984B984AB9F1470F8CBF90469846032323612BF0040323604FF0000A3DE0B9F1670F00F08A81B9F1470F00F08681236001936368002166
:402B80000DF13302059002920093424653460691CDF81090CDF80CE02846FFF7F4FE09F0DF03472B804600F08481B9F1650F0D9900F28D8101394A4604F150000D91FFF793
:402BC00042FF0E9A82468318012A236100F37C812268D10700F178819DF8333013B12D2384F84330009733460FAA2146284600F09FF9013002D14FF0FF3096E123685A05AA
:402C000001D4236965E0B9F1650F40F2D580D4E912010022002301F0AFFF78B30123654A31462846B8470130E5D00E9B0D9A9A420BDB2368D80708D423689B0740F1118185
:402C40004FF0000804F1190906E10A9B099A31462846B8470130CED04FF0000804F11A090E9B013B9845E7DA01234A4631462846B8470130BFD008F10108F1E70D9B002B2D
:402C800029DC01234B4A31462846B8470130B2D00D9B23B90E9B13B92368D907CCD50A9B099A31462846B8470130A4D04FF0000904F11A0A0D9B5B42994509DA01235246C6
:402CC00031462846B847013095D009F10109F1E70E9B4246A7E00E9AA36D9A42A8BF1A46002A914606DC4FF0000A29EAE97904F11A0B11E01346314642462846B8470130C9
:402D0000F1D178E701235A4631462846B84701303FF471AF0AF1010AA36DC9EB03029245F0DB08EB03090D9A0E9B9A420FDB2368DA070CD40E9B0D9A9844C9EB08089B1ACF
:402D40009845A8BF9846B8F1000F08DC0FE00A9B099A31462846B8470130EBD14BE743464A4631462846B84701303FF444AF4FF0000928EAE87804F11A0A09E0012352468F
:402D800031462846B84701303FF435AF09F101090D9A0E9B9B1AC8EB03039945EEDB4BE7FFFFEF7F624D0000664D00006A4D00006E4D0000724D00000E9A012A01DCDB07BB
:402DC00038D50123424631462846B84701303FF412AF0A9B099A31462846B84701303FF40AAFD4E912010022002301F0C5FE20B14FF0000804F11A090EE00E9B08F101023C
:402E0000013B19E001234A4631462846B84701303FF4F1AE08F101080E9B013B9845F1DB534604F1500231462846B84701307FF403AFE0E64246012331462846B847013091
:402E4000EED1D8E601234A4631462846B84701303FF4D1AE08F10108E3680F9A9B1A9845F0DBE0680F9B9842B8BF18465DE062680EA8531C0DF1340E4BF480637FF474AE43
:402E8000062201E012B90122626075E6002106910DF133018DE80C00236005904246CDF81090CDF80CE0029153462846FFF76BFD80460D9BD81C02DB626893421DDDA9F173
:402EC00002095FFA89F970E60133236184E6B9F1660F14D10029636807DD216113B92268D2071DD501330B4419E013B92268D00701D5023313E0012311E04FF067090D9BE2
:402F00000E9A934205DB22682361D10708D5013305E0002BD4BFC3F102030123134423610D9B4FF0000AA36556E611B0BDE8F08F2DE9F04791461F460A698B6806469342B8
:402F4000B8BF1346C9F8003091F843200C46DDF8208012B10133C9F800302368990642BFD9F800300233C9F80030256815F0060510D104F1190A07E0012352463946304675
:402F8000C04701301AD00135E368D9F800209B1A9D42F1DB94F843302268003318BF012392060FD5E118302081F843005A1C94F845102244023382F8431003E04FF0FF30D5
:402FC000BDE8F08704F1430239463046C0470130F4D02268D9F80050E36802F00602042A08BF5D1B2269A3680CBF25EAE57500259342C4BF9B1AED184FF000091A344D4504
:4030000009D00123224639463046C0470130D5D009F10109F3E70020BDE8F087034613F8012B002AFBD1181A013870472DE9F74F03690C6980469C427FDC013C01F1140721
:403040004FEA840E00F1140606EB0E0357F82450019356F824300135B3FBF5F507EB0E09C5B34FF0000A3846B446D34650F8043B9AB205FB02A21B0C4FEA124A05FB03A37D
:4030800092B2C2EB0B0BBCF800204FEA134A5A441FFA83FBDCF800308145CBEB134303EB224392B242EA03424FEA234B4CF8042BDCD256F80E306BB9019B043B9E421A46F9
:4030C00002D3C8F8104005E01268043B002AF8D1013CF3E7404600F0E8FF00282BDB304601354FF0000E57F8042B036891B2C1EB0E0E120C99B27144C2EB134303EB214358
:4031000089B24FEA234EB94541EA034340F8043BE9D256F8242006EB840362B9043B9E421A4602D3C8F8104005E01268043B002AF8D1013CF3E7284600E0002003B0BDE812
:40314000F08F0000000000002DE9F04F456A95B08246219CCDE9022345B9102000F090FDCAF82400456085600560C560DAF82430196859B15A68012393404A608B605046ED
:4031800000F0BBFDDAF8243000221A60039BA04A002BBDBF01232360039B0023BCBF23F000430393DDF80C80A8BF236028F000431B0D1B0593421DD142F20F73209A136013
:4031C000029B43B9934A944BC8F31300002814BF1846104600E09048229B002B00F04685C37813B100F1080300E0C31C229A136000F03CBDDDE902450022002320462946A9
:4032000001F0BAFC074658B1209A01231360229B002B00F01E8581481860013800F026BD12AB019313AB009322462B46504600F0B7FFC8F30A56049056B1C5F3130343F00A
:403240007F51204641F44011A6F2FF3611971DE0139B129E1E4406F23243202B0ADD029A06F21240C3F1400322FA00F008FA03F3184304E0C3F12000029B03FA00F001F052
:403280009DF90123A1F1F871013E11930022644B01F056F858A3D3E9002301F005FA58A3D3E9002301F04EF8044630460D4601F095F955A3D3E9002301F0F6F902460B46A9
:4032C0002046294601F03EF804460D4601F09CFC0022834600232046294601F057FC58B1584601F07BF902460B462046294601F043FC08B90BF1FF3BBBF1160F0DD8DDE968
:403300000223484901EBCB01D1E9000101F05CFC30B10BF1FF3B002300E00123109300E01090129B9E1B731E079343BFC3F10008002307934FF00008BBF1000F06DB079B29
:40334000CDF82CB05B440793002705E00023CBEB0808CBF100070B931E9B092B28D8052BC4BF043B1E931E9BC8BF0025A3F10203D8BF0125032B20D8DFE803F0060E0204D8
:40338000012302E0012308E000230A931F9B002B1DDD9946059321E000230A931F9B0BEB030909F10103012B0593B8BF012315E0012500231E930A9501E001230A934FF09C
:4033C000FF390022CDF8149012231F9206E04FF001094B46CDF81490CDF87C90DAF8244000226260042101F114029A421CD86268490001326260F6E761436F63A787D23F79
:40340000B3C8608B288AC63FFB799F501344D33F0000F07F744D00007D4D0000734D00000000F83F904D00006168504600F030FCDAF8243020601B680693059B0E2B00F2CD
:403440005B81002D00F05881DDE90234BBF1000FCDE90E3430DD9F4A0BF00F034FEA2B1502EBC303E80618CBCDE908340CD5DDE90E01994B05F00F05D3E9082301F03EFA26
:403480000324CDE9020100E00224934E6DB1E90708D5DDE90801D6E9002301F005F9CDE9080101346D100836F0E7DDE90823DDE9020101F023FA20E0CBF1000505B3DDE92D
:4034C0000E01844B05F00F0203EBC203D3E9002301F0EAF8CDE902017F4E2D110023022455B1EA0705D5D6E9002301F0DDF8013401236D100836F3E71BB1CDE9020100E0AA
:403500000224109BE3B1DDE902560022734B2846314601F03BFB98B1059B8BB1B9F1000F40F3E6800BF1FF330893314600226C4B284601F0B9F80134CDE902014E4602E018
:40354000059ECDF820B0204601F048F8DDE9022301F0AAF8634B002200F0F4FEA1F1507304460C931D46D6B9DDE9020100225E4B00F0E6FE22460C9BCDE9020101F024FBDC
:40358000002840F03F820C99224601F10043DDE9020101F0FBFA002840F02B82A8E00A9A4C4B711E002A49D003EBC103D3E9002300204E4901F0A2F922462B4600F0C0FE0C
:4035C000CDE90C01069CDDE9020101F01DFB054601F004F802460B46DDE9020100F0B0FEDDE90C23303504F8015BCDE9020101F0CDFA002840F01D83DDE9022300203749B6
:4036000000F09EFEDDE90C2301F0C0FA002840F0D180069BE31AB3426ADADDE90C0100222F4B01F041F80022CDE90C01DDE902012B4B01F039F8CDE90201C4E703EBC101EB
:403640002246D1E900012B4601F02EF8069BCDE90C011D469C19DDE9020101F0D5FA064600F0BCFF02460B46DDE9020100F068FE303605F8016BAC42CDE902014FF0000234
:4036800022D11A4BDDE90C0100F05CFE02460B46DDE9020101F098FA002840F08B80DDE90C230020114900F04BFE02460B46DDE9020101F06BFAD8B114F8013C621E302B40
:4036C00040F0B7821446F7E7054B00F0EDFFCDE90201C0E7904D0000684E00000000F03F0000244000001C40000014400000E03FDDE90E34CDE90234139B002B7CDBBBF1D8
:403700000E0F79DCAB4B03EBCB03D3E900671F9B002B14DA059B002B11DC40F06C810022A54B3046394600F0BFFFDDE9022301F041FA059D2E46002840F05F8165E1069C98
:40374000DDE9028932463B464046494601F0D6F801F05AFA054600F041FF32463B4600F0A3FF0B4602464946404600F0E9FD05F1300E069B04F801EBC3EB040E059B734587
:403780002DD102460B4600F0DDFD8046894602460B463046394601F0F9F978B942464B463046394601F0E8F9002800F04482EB0704D440E2DDF820B000E01C4614F8012CA7
:4037C000631E392A07D1069A9A42F6D1069930220BF1010B0A701A7801321A702BE20022764B00F061FF002200238046894601F0C3F90028A6D01EE20A9A002A2BD01E9A22
:40380000012A0ADC119A12B103F2334302E0129BC3F136033D46444613E0059B5D1EAF42BFBF0B9BEA1B9B180B93059BB6BF2F467D1B0025002BA7BF4446059BC3EB0804E0
:403840000023079A01211A4450469844079200F0F3FA064602E03D4644460A9E5CB1079B002B08DDA342A8BF2346079AC3EB0808E41AD31A0793002F1DDD0A9BABB18DB179
:4038800031462A46504600F071FB049A01460646504600F0DAFA04990890504600F02DFA089B04937A1B06D000E03A460499504600F05CFB04900121504600F0BDFA0B9BAA
:4038C00005465BB31A460146504600F04FFB1E9B0546012B18DC029B83B9039BC3F3130373B9039B23F000473F0D3F054FB1079B08F1010801330793012702E0002700E05A
:40390000029F0B9B73B100E000272B6905EB8303186900F044FAC0F1200004E01E9B012BD9DD0B9F0120079B184410F01F0008D0C0F12003042B02DDC0F11C0002E006D0E5
:4039400018461C30079B8044034404440793B8F1000F05DD42460499504600F055FB0490079B002B05DD29461A46504600F04CFB0546109B23B32946049800F096FB00281A
:403980001EDA00230A220499504600F0CDF90A9B0BF1FF3B0490002B00F05F81314600230A22504600F0C0F9B9F1000F06463FDC3BE000BF904D00000000144000002440D9
:4039C000059B002B2BDC1E9B022B28DDDDF81490B9F1000F11D129464B460522504600F0A3F901460546049800F05FFB00280CDC03E0354600E000252E461F9B069C6FEA99
:403A0000030B09E03546DDF820B0069B069A5C1C312313700BF1010B05960026F7E00A9BDDF8149023B9069CB2E01E9B022BCFDC002C05DD31462246504600F0E5FA0646E2
:403A40009FB17168504600F023F90446326906F10C01023292000C30FEF782FF01222146504600F0D1FA059000E00596029B069F03F00103079329460498FFF7D7FA314613
:403A8000044600F13008049800F00FFB059A02902946504600F025FBC36802463BB901460A90049800F001FB0A9A034600E00123114650460A9300F020F90A9B53B91E9AFA
:403AC00042B9079A32B9B8F1390F2AD0029B002B1CDC1DE0029A002A04DB1BD11E9ACAB9079ABAB9002B13DD01220499504600F08BFA2946049000F0D8FA002803DC07D12D
:403B000018F0010F04D0B8F1390F0AD004F131087C1C0CE0002B07F101040BDDB8F1390F03D139233B70013756E008F1010887F800806CE0069B2746E31A4B4504F8018C61
:403B40003BD000230A220499504600F0EDF8059B04909E424FF00A024FF000033146504604D100F0E1F80646059084E700F0DCF8002306460A220599504600F0D5F8059066
:403B800079E700230A220499504600F0CDF8049029460498FFF74AFA069B00F1300804F8018BE31A4B45ECDB069B0596B9F1010FACBF4B4401331F460026012204995046EA
:403BC00000F022FA2946049000F06FFA002803DC15D118F0010F12D03C4614F8013C621E392B09D1069B934204D10BF1010B3123069A02E01446F0E70133137007E03C4673
:403C000014F8013C621E302B01D11446F8E72946504600F072F8059B6BB12EB19E4203D03146504600F069F80599504600F065F801E0DDF820B00499504600F05EF80023A7
:403C4000209A23700BF101031360229B1BB11C6001E008480AE0069808E0B9F1000F3FF7E2AE1E9B022B7FF7DEAEB1E615B0BDE8F08F00BF724D0000004870475C81FF1F7F
:403C8000024B0146186800F0E7BA00BF5881FF1F70B5456A04460E463DB91020FFF7F0FF6062456085600560C560656AEB6843B1636ADB6853F8260078B1026843F82620AB
:403CC00017E021220421204600F0B8FA636AE860DB68002BECD1002070BD012101FA06F56A1D9200204600F0A9FA0028F3D04660856000230361C36070BD70B5446A06463A
:403D00000D463CB91020FFF7BBFF7062446084600460C4603DB1736A6A68DB6853F82210296043F8225070BD2DE9F04106460C460D691F4601F1140E0023DEF800000133B8
:403D400081B202FB0171000C0F0C02FB007089B201EB00419D424FEA10474EF8041BECDCD7B1A3689D4212DB616830460131FFF78FFF8046226904F10C01023292000C3060
:403D8000FEF7EEFD21463046FFF7B7FF444604EB850301355F6125612046BDE8F081030C1B0413B90004102300E0002310F07F4F04BF0002083310F0704F04BF00010433E5
:403DC00010F0404F04BF80000233002803DB420003D5581C70471846704720207047036813F007020BD0D90722D49A074BBF5B089B08036003604CBF01200220704799B276
:403E000009B91B0C102213F0FF0F04BF1B0A0832190704BF1B090432990704BF9B080232D90702D45B0805D00132036010467047002070472020704710B50C460121FFF72F
:403E400027FF01224461026110BD2DE9F74F14460A69236988469A42BEBF0B46A0461C46D8F81070D4F81090D8F80830D8F8041007EB09069E42C8BF0131FFF709FF00F17E
:403E800014052B4605EB860C0022634502D243F8042BFAE704F1140208F1140102EB890301EB87070093009B0192934257D9B2F800B0BBF1000F23D08946AE464FF0000829
:403EC00059F8044BBEF800A0A3B20BFB03A34FEA144ADEF8004043444FEA14480BFB0A84F24604EB13449BB243EA04434F454FEA14484AF8043B01D9D646E1E7CEF804807D
:403F0000019B0432B3F802A0BAF1000F21D02C4689462B684FF00008B9F800E0B4F802B09BB20AFB0EBEA346F04443EA08434BF8043B59F8043BB4F804E01B0C0AFB03E346
:403F40004F4503EB18434FEA134801D95C46E3E763600435A7E75CF8043D13B9013E002EF9DC066103B0BDE8F08F00002DE9F843154612F0030206460F4607D0214C013A4C
:403F8000002354F82220FFF7CFFE0746AD1036D0746A3CB91020FFF773FE7062446084600460C460D6F82480D8F808404CB940F271213046FFF740FF04460023C8F80800FE
:403FC00003604FF00008EB070AD5394622463046FFF73BFF814639463046FFF78EFE4F466D100CD0206808B10446ECE7224621463046FFF72AFF2060C0F80080F4E73846BA
:40400000BDE8F883584E00002DE9F0470C460746914626694FEA621A56444968A368751CAB4202DA01315B00FAE73846FFF730FE002380461A4600F11401534503DA41F8F6
:4040400023200133F9E72AEAEA73206901EB830319F01F0904F1140101EB800E14D0C9F1200C002208689A4600FA09F0024343F8042B51F8042B8E4522FA0CF2F2D8CAF8F9
:40408000042042B1B51C06E0043B51F8042B8E4543F8042FF9D8013D3846C8F810502146FFF72BFE4046BDE8F08703690A6910B59B1A11D192001430143183180A4453F8DB
:4040C000044D52F8041D8C4202D007D3012010BD9842F4D3002010BD184610BD4FF0FF3010BD2DE9F8430C460746114620461546FFF7DBFF061E08D131463846FFF7C8FD23
:40410000012303614661BDE8F883BCBF23462C4638466168BABF1D4601260026FFF7B8FD2B69C660266905F1140904F1140101EB860709EB830800F114054FF0000C51F8C3
:40414000042B59F8044B93B29C44A3B2240CC3EB0C03C4EB124202EB23429BB24FEA224CC84543EA02428E4645F8042BE7D8BE450ED25EF8041B8AB26244131403EB1143A0
:4041800092B242EA03424FEA234C45F8042BEEE755F8043D0BB9013EFAE70661BDE8F8832DE9F3411C4601219046089E099DFFF76FFDC4F31302C4F30A5407460CB142F4F5
:4041C00080120192B8F1000F19D002A840F8088DFFF705FE009B48B1019AC0F1200102FA01F10B43C2407B61019200E07B61019B002B14BF02210121BB61396107E001A8FA
:40420000FFF7EDFD019B01217B613961203034B1A4F2334404443460C0F1350009E0A0F2324007EB810330601869FFF7B8FDC0EB41102860384602B0BDE8F08138B502FB93
:4042400001F4214600F008F8054618B122460021FEF791FB284638BD70B5CD1C25F0030508350C2D38BF0C25002D064601DBA94202D90C23336046E000F05CF8234B1C686F
:404280001A462146A1B10B685B1B0ED40B2B03D90B60CC18CD501EE08C420BBF63684B681360636018BF0C4615E00C464968E9E7174C23681BB9304600F02CF82060294626
:4042C000304600F027F8431C18D0C41C24F00304A0420DD12560304600F02DF804F10B00231D20F00700C31A0ED05A42E25070BD211A304600F00EF80130EBD10C233360C4
:40430000304600F018F8002070BD00BFC881FF1FC481FF1F38B5064C0023054608462360FDF764F9431C02D1236803B12B6038BD80BAFF1F7047704781F0004102E000BF58
:4043400083F0004330B54FEA41044FEA430594EA050F08BF90EA020F1FBF54EA000C55EA020C7FEA645C7FEA655C00F0E2804FEA5454D4EB5555B8BF6D420CDD2C4480EA72
:40438000020281EA030382EA000083EA010180EA020281EA0303362D88BF30BD11F0004F4FEA01314FF4801C4CEA113102D0404261EB410113F0004F4FEA03334CEA133306
:4043C00002D0524263EB430394EA050F00F0A780A4F10104D5F1200E0DDB02FA0EFC22FA05F2801841F1000103FA0EF2801843FA05F359410EE0A5F120050EF1200E012A5B
:4044000003FA0EFC28BF4CF0020C43FA05F3C01851EBE37101F0004507D54FF0000EDCF1000C7EEB00006EEB0101B1F5801F1BD3B1F5001F0CD349085FEA30004FEA3C0C89
:4044400004F101044FEA445212F5800F80F09A80BCF1004F08BF5FEA500C50F1000041EB045141EA050130BD5FEA4C0C404141EB010111F4801FA4F10104E9D191F0000F33
:4044800004BF01460020B1FA81F308BF2033A3F10B03B3F120020CDA0C3208DD02F1140CC2F10C0201FA0CF021FA02F10CE002F11402D8BFC2F1200C01FA02F120FA0CFCD4
:4044C000DCBF41EA0C019040E41AA2BF01EB0451294330BD6FEA04041F3C1CDA0C340EDC04F11404C4F1200220FA04F001FA02F340EA030021FA04F345EA030130BDC4F14E
:404500000C04C4F1200220FA02F001FA04F340EA0300294630BD21FA04F0294630BD94F0000F83F4801306BF81F480110134013D4EE77FEA645C18BF7FEA655C29D094EAF1
:40454000050F08BF90EA020F05D054EA000C04BF1946104630BD91EA030F1EBF0021002030BD5FEA545C05D14000494128BF41F0004130BD14F580043CBF01F5801130BDDE
:4045800001F0004545F0FE4141F470014FF0000030BD7FEA645C1ABF194610467FEA655C1CBF0B46024650EA013406BF52EA033591EA030F41F4002130BD00BF90F0000F64
:4045C00004BF0021704730B54FF4806404F132044FF000054FF0000150E700BF90F0000F04BF0021704730B54FF4806404F1320410F0004548BF40424FF000013EE700BF1C
:4046000042004FEAE2014FEA31014FEA02701FBF12F07F4393F07F4F81F06051704792F0000F14BF93F07F4F704730B54FF4607401F0004521F0004120E700BF50EA010247
:4046400008BF704730B54FF000050AE050EA010208BF704730B511F0004502D5404261EB41014FF4806404F132045FEA915C3FF4DCAE4FF003025FEADC0C18BF03325FEACD
:40468000DC0C18BF033202EBDC02C2F1200300FA03FC20FA02F001FA03FE40EA0E0021FA02F11444C1E600BF70B54FF0FF0C4CF4E06C1CEA11541DBF1CEA135594EA0C0F17
:4046C00095EA0C0F00F0DEF82C4481EA030621EA4C5123EA4C5350EA013518BF52EA033541F4801143F4801338D0A0FB02CE4FF00005E1FB02E506F00042E0FB03E54FF023
:404700000006E1FB03569CF0000F18BF4EF0010EA4F1FF04B6F5007F64F5407404D25FEA4E0E6D4146EB060642EAC62141EA55514FEAC52040EA5E504FEACE2EB4F1FD0C8D
:4047400088BFBCF5E06F1ED8BEF1004F08BF5FEA500E50F1000041EB045170BD06F0004646EA010140EA020081EA0301B4EB5C04C2BFD4EB0C0541EA045170BD41F48011D5
:404780004FF0000E013C00F3AB8014F1360FDEBF002001F0004170BDC4F10004203C35DA0C341BDC04F11404C4F1200500FA05F320FA04F001FA05F240EA020001F0004258
:4047C00021F0004110EBD37021FA04F642EB06015EEA430E08BF20EAD37070BDC4F10C04C4F1200500FA04F320FA05F001FA04F240EA020001F0004110EBD37041F10001A7
:404800005EEA430E08BF20EAD37070BDC4F1200500FA05F24EEA020E20FA04F301FA05F243EA020321FA04F001F0004121FA04F220EA020000EBD3705EEA430E08BF20EA60
:40484000D37070BD94F0000F0FD101F00046400041EB010111F4801F08BF013CF7D041EA060195F0000F18BF704703F00046520043EB030313F4801F08BF013DF7D043EA8F
:404880000603704794EA0C0F0CEA135518BF95EA0C0F0CD050EA410618BF52EA4306D1D181EA030101F000414FF0000070BD50EA410606BF1046194652EA430619D094EA81
:4048C0000C0F02D150EA013613D195EA0C0F05D152EA03361CBF104619460AD181EA030101F0004141F0FE4141F470014FF0000070BD41F0FE4141F4780170BD70B54FF053
:40490000FF0C4CF4E06C1CEA11541DBF1CEA135594EA0C0F95EA0C0F00F0A7F8A4EB050481EA030E52EA03354FEA013100F088804FEA03334FF0805545EA131343EA126304
:404940004FEA022245EA111545EA10654FEA00260EF000419D4208BF964244F1FD0404F5407402D25B084FEA3202B61A65EB03055B084FEA32024FF480104FF4002CB6EB63
:40498000020E75EB030E22BFB61A754640EA0C005B084FEA3202B6EB020E75EB030E22BFB61A754640EA5C005B084FEA3202B6EB020E75EB030E22BFB61A754640EA9C00CC
:4049C0005B084FEA3202B6EB020E75EB030E22BFB61A754640EADC0055EA060E18D04FEA051545EA16754FEA06164FEAC30343EA52734FEAC2025FEA1C1CC0D111F4801F12
:404A00000BD141EA00014FF000004FF0004CB6E711F4801F04BF01430020B4F1FD0C88BFBCF5E06F3FF6AFAEB5EB030C04BFB6EB020C5FEA500C50F1000041EB045170BD00
:404A40000EF0004E4EEA113114EB5C04C2BFD4EB0C0541EA045170BD41F480114FF0000E013C90E645EA060E8DE60CEA135594EA0C0F08BF95EA0C0F3FF43BAF94EA0C0F89
:404A80000AD150EA01347FF434AF95EA0C0F7FF425AF104619462CE795EA0C0F06D152EA03353FF4FDAE1046194622E750EA410618BF52EA43067FF4C5AE50EA41047FF477
:404AC0000DAF52EA43057FF4EBAE12E74FF0FF3C06E000BF4FF0010C02E000BF4FF0010C4DF804CD4FEA410C7FEA6C5C4FEA430C18BF7FEA6C5C1BD001B050EA410C0CBFCE
:404B000052EA430C91EA030F02BF90EA020F0020704710F1000F91EA030F58BF994208BF90422CBFD8176FEAE37040F0010070474FEA410C7FEA6C5C02D150EA013C07D1CB
:404B40004FEA430C7FEA6C5CD6D152EA033CD3D05DF8040B704700BF8446104662468C461946634600E000BF01B5FFF7B7FF002848BF10F1000F01BD4DF808EDFFF7F4FF1A
:404B80000CBF012000205DF808FB00BF4DF808EDFFF7EAFF34BF012000205DF808FB00BF4DF808EDFFF7E0FF94BF012000205DF808FB00BF4DF808EDFFF7CEFF94BF012043
:404BC00000205DF808FB00BF4DF808EDFFF7C4FF34BF012000205DF808FB00BF4FEA410C7FEA6C5C02D150EA013C0AD14FEA430C7FEA6C5C02D152EA033C02D14FF000004B
:404C000070474FF0010070474FEA410212F5001215D211D56FF47873B3EB625212D94FEAC12343F0004343EA505311F0004F23FA02F018BF404270474FF00000704750EAD7
:404C4000013005D111F0004008BF6FF0004070474FF00000704700BF00000000000000003800000040000000480000005000000058000000580000005800000058000000AA
:404C8000B881FF1FB881FF1FB881FF1FB881FF1FB881FF1FB881FF1FB881FF1FB881FF1FB881FF1FB881FF1FB881FF1F080000481000004820000048280400481800004853
:404CC00028000048A800004828010048A801004828020048A802004828030048A8030048480400485804004868040048E804004868050048E805004868060048E806004832
:404D000068070048E807004868080048E808004868090048E8090048680A0048E80A0048680B0048E80B0048680C0048E80C0048680D0048E80D0048680E0048E80E0048CB
:404D4000680F0048E80F004868100048E810004868110048E811004868120048E81200484300494E4600696E66004E414E006E616E003000496E66696E697479004E614E41
:404D800000504F534958002E0000000000000000000000000000F03F000000000000244000000000000059400000000000408F40000000000088C34000000000006AF840CA
:404DC0000000000080842E4100000000D01263410000000084D797410000000065CDCD41000000205FA00242000000E876483742000000A2941A6D42000040E59C30A242F1
:404E00000000901EC4BCD64200003426F56B0C430080E03779C3414300A0D8855734764300C84E676DC1AB43003D9160E458E143408CB5781DAF154450EFE2D6E41A4B44C2
:404E400092D54D06CFF08044F64AE1C7022DB544B49DD9794378EA4405000000190000007D000000000000000080E03779C34143176E05B5B5B89346F5F93FE9034F384DF5
:404E8000321D30F94877825A3CBF737FDD4F1575F8B500BFF8BC08BC9E46704785020000D9160000F8B500BFF8BC08BC9E46704761020000C84E0000C880FF1FD000000019
:404EC000F038000000000000000000003F000000400000000100000088BAFF1FFF000000807F00000100000040D2DF03E8FD0000410000000000F47E00000000000000001F
:404F0000000000000000000000000000000000000000000000000000604D0000000000000000000000000000000000000000000000000000000000000000000000000000C4
:404F4000000000000000000000000000000000000000000000000000F880FF1F874D0000884D0000884D0000884D0000884D0000884D0000884D0000884D0000884D00001F
:404F8000884D0000FFFFFFFFFFFFFFFFFFFFFFFFFFFF000000000000000000000000000000000000000000000000000000000000000000000000000000000000000000002A
:404FC00000000000000000000000000000000000000000000000000000000000000000000000000000000000000000000000000000000000000000000000000000000000B1
:405000000000000000000000000000000000000000000000000000000000000000000000000000000000000000000000000000000000000000000000000000000000000070
:405040000000000000000000000000000000000000000000000000000000000000000000000000000000000000000000000000000000000000000000000000000000000030
:4050800000000000000000000000000000000000000000000000000000000000000000000000000000000000000000000000000000000000000000000000000000000000F0
:020000040003F7
:0200000480007A
:40000000020000000000000001010000000000003AA30000000000003D00000000000000000000000000002109031004140300041C00020010000C000003000C00200000DD
:40004000000A03040000000500000008100000000C10110000000000000000201F10000F0000008000000014410200000000B0CE38FFFFFF0000F0440C00000001000000FC
:400080000404040411110001000000000000C000000040020000000000000000000000000000000000000000000000000C0013000000080000000C0040000005400600014C
:4000C00011000E030000400111000606000000000000000220000300300040000F07000002002020000004000000000000000000000000000000000000000000000000008F
:40010000040400001100000100000000000000000000000000000000000000000000000000000000000000000000000000000000000001020001000000000000000000029F
:4001400000010000000000010000000000000100000000000000000000000002010100000000000000000010300500000002000009FFFFFF00A000041800800000000000EF
:400180000A040A0A000000014000C0004040C000C000C000C000C00000000000000000000000000000000000000003020100000000000400000000000000000400000200CC
:4001C0000000040000000100000008000200000300000000000000010000030408030400000000000000000020060000001520002BFFFFFF00A00004180080000000000017
:4002000004040404000000014000C0004040C000C000C000C000C0000000000000000000000000000000000000000100000300000000010001000000000300000000000064
:4002400000020000000001010000000000000000010000000000000001000003000000000008000000000104020000000000000400FF07FF4020F005080080000000000080
:40028000040404040001000140A8402000000000000000000000000000000000000000000000000000000000000000000000000400000008000200000100000101000000D3
:4002C00000020100000008000000040000000202000000000000000008010402010402080000000000001004300600000000000218FFFFFF00A000041800000000000000B0
:4003000004040404000000014000C0004040C000C000C000C000C000000000000000000000000000000000000000000000000000000000000000000000000000010000006B
:4003400000000000000000010100000000000000000000000000010000000001010000000000000000001000100200000000000000FFFFFF00A0000418000000000000009D
:4003800004090900000000014000C0004040C000C000C000C000C00000000000000000000000000000000000010000010000010100040000000002000000000200000004D6
:4003C00000020000010000000000000600000000000000000000000001000000000602010000000000000100100200000001200009FFFFFF00AF0F04180080000000000056
:4004000009090909000000014000C0004040C000C000C000C000C00000000000000000000000000000000000000000000000000000000000000000000000000000000F0048
:400440000000000000000000030000000000000000000300010000000200000000000000000002000000000000000000000000000000000000000000000000000000000071
:40048000000000000000000000000000000000000000000000000000000000000000000000000000000000000000000000000000000000000000000000000000000000003C
:4004C00000000000000000000000000000000000000000000000000000000000000000800000010000000000000000000000000000000080000000000000000000000000FB
:4005000000000000000000000000010000000000000000000000001000000000000101000000000000000000000000000000000000000000000000000000000000000000A8
:400540000000000001000400000000000400000008000000020000000000000000000000000000000000000000000000000000000000000000000000000000000000000068
:40058000000000000000001000000000000000000000000000000000000000000000000000000000000000000000000000000000000000000000000000000000000000002B
:4005C00000000000000000000000000000000000000000000000000000000000000000000000000000000000000000000000000100000000000000000000000000000000FA
:4006000000000000000100000000000000000001000000000000000000000000000000000000000000000000000000000000010000000000000000000000000000000000B7
:4006400000000000000000000000000000000000000000000000000000000000000000000000000000000000008000000000000000000000000000000000000000000000FA
:400680000000000000810000000000000000000100004000000000000000000000000000000000000000000000000000000000000000000000000000000000000000000078
:4006C00000000000000000000000000000000000000000000000000000000000000000000000000000000000000000000000000000000000000000000000000000000000FA
:400700000000800000000000000000000000000000000000000000000000000000000000000000000000000000000000000000000000000000000000000000000000000039
:400740000000000000000000000000000000000000000000000000000000000000000000000000000000000000000000000000000000000000000000000000000000000079
:4007800000000000008100000000000000000001000000000000000000000000000000000000000000000000000000000000080000000000000000000000000000000000AF
:4007C00000000000000000000000000000000000000000000000000000000000000000000000000000000000000000000000000000000000000000000000000000000000F9
:4008000000000000000000000000000000000000000000000000000000000000000000000000000000000000000000000000000000000000000000000000000000000000B8
:4008400000000000008000000000000000000000000000000000000000000000000000000000000000000000000000000000000000000000000000000000000000000000F8
:400880000000000000010000000000000000000100000000000000000000000000000000000000000000000000000000000000000000000000000000000000000000040032
:4008C00000000000000000000000000000000000000000000000000000000000000000000000000000000000000000000000000000000000000000000000000000000000F8
:4009000000000000000000000000000000000000000000000000000000000000000000000000000000000000000000000000000000000000000000000000000000000000B7
:400940000000000000000000000000000000000000000000000000000000000000010000000000010000000000000000000000000000000000000000000000000000000075
:400980000000000000000000000000000000000000000000000000000000000000000000000000000000000000000000000000000000000000000000000000000000000037
:4009C0000000000001000400000000000000000000000000000000000000000000000000000000000000000000000000020021000800000000000002000000420000000083
:400A00000020000001020000000000200A00800A0000000000020000000080000000002A0000000001000018012002000020020000000000000000080000000000200000AD
:400A400000000000000000000000000000000000000000000000000000000000000200000000080000000800000008000800001100220000040001000000004000000000DC
:400A800000002000000000000000000000008000000080000000000000000000000000000000000000000000B00084000900000000008000E800E0003C0000000000000055
:400AC00000000000000024000000300040000000100000004000020000000000000000000000000000000000100000000010005000000000000802082000000000088000E6
:400B0000080000000238025000000804000020180000000000000012008810000000010020000080000000021000000000200000108000000000002A200000000000001274
:400B4000000000000000000000000000000000000000000000000000000100000000800000002000000000000000000811800000000008041001000020082000080000804E
:400B8000000000400000000000800000000800000400100000000000000000000404000000000000000000007200E00034000000000050008E008C00220028000000000017
:400BC00000000000000002000C0020000800A000000000000000060000000000000000000000000000000000000020000000000000000040000000000000000000000000B9
:400C000000000000000000000000000000000000000000000000000000000000000000000000000000000000000000000000000000000000000000000000000000000000B4
:400C40000000000000000000200000000800000000000000000000000000000000000000000000000000000000000000001000810020218000000002A00000000000080050
:400C8000040902000000400000A104000000002000080000000000000200100000108081001400800000080400080000000000200800000000008000180400000000000881
:400CC000000000000000000000000000000000000214010000000000A000000000000040000000000000000000010000000004000001000000000000000000040000628011
:400D000000140001000000800000000100008008000000000010000100000000000000000000000000000000D0008F004C00000000000200B5004E002200040000000000AE
:400D40000000000000000000040000000800000000000000000000000000000000000000000000000000000000000000000000000000000000000000000000000000000067
:400D80000000000000000000000000000000000000000000000000000000000000000000000000000000000000000000000000000000000000000000000000000000000033
:400DC000000000000000000004000000000000000000000000000100000000000000000000000000000000004400000C00121002002022800000080000000082002000040A
:400E00004416080000000800003000040004000B000200080802000000208401001004810000000000000006000000000020008100000000000000000000000008001001F7
:400E4000000000000010400900000000000000000000000000000000000000000000000000000000000000000804000100000000000000000000000000000000000000000C
:400E800000000000000000000000000000000000000000000000000000000000000000000000000000000000F7004F00690000000000A500FF00C000B00000000000F0007F
:400EC00000000000000000000400000000000000000000000000010000000000000000000000000000000000000000000000000000000000000000000000000000000000ED
:400F000000000000000000000000000000000000000000000000000000000000000000000000000000000000000000000000000000000000000000000000000000000000B1
:400F400000000000000000000000000000000000000000000000000000000000000000208000000000000000000040000000000080040020000000000000000000084000A5
:400F800000000000000000000000000000000000008000000000000800000000000000000000000000000000000000000000000000000000000000000000000000000000A9
:400FC00000000000800020000000200000000000000000000000C0000000000000000000000000000000000000000000000000000000000000000000000000000008400029
:401000000000000000000000000000000080000800000000000000000000000000000000000000000000000000000000000000000000000000000000000000000000000028
:401040000000000000000000000000000000000000000000000000000000000000000000000000000000000000000000000000000000000000000000000000000008400028
:401080000000000000000000000000000080000800000040000000000000000000000000000000000000000000000000000000000000000000000000000000000000000068
:4010C0000000000000000000000000000000000000000000000080000000000000000000000000000000000000000000000000000000000000000000000000000000000070
:40110000000000000000000000000000000000000000000000000000000000000000000000000000000000000000000000000000000000000000000000040000008000002B
:40114000000000000000000000000000000000000000000000000000000000000000000000000000000000000000000000000000000000000000000000000000000040002F
:401180000000000000000040000000000000000800000000000000000000000000000000000000000000000000000000000000000000000000000000000000006000000087
:4011C00000000000000000000000000000000000000000000000000000000000000000000000000000000000000000000000000000000000000000000000000000004000AF
:401200000000000000000040000000000000000800000000000000000000000000000000000000000000000000000000000000000000000000000000000000000000000066
:40124000000000000000000000000000000000000000000000000000000000000000000000000000000000000000000000000000000000000000000000000000000000006E
:4012800000000000000000000000000000000000000000000000000000000008000000400000000000004000000000000000000000000000000000000000000000000000A6
:4012C00000000000000000000000000000000000000000000000000000000000000000000000000000000000000000000000000000000000000000000000000000000000EE
:40130000000000000000000000000000000000000000000000000000000000000000000000000000000000000000000000000000000000006000200000000000000000002D
:401340000000000000000000000000000000000000000000000000000000000000000000000000000000000000FFFF00FF000000000B0B0000003000010000010100010026
:4013800000000000280018012800180100000000000000000000000000000000000000000000000000000000000000000000000000000000000000000000000000000000AB
:4013C00000000000000000000000000000000000000000000000000000000000000000000000000000000000000000000000000000000000000000000000000000000000ED
:4014000000000000000000000000000000000000000000000000000000000000000000000000000000000000000000000000000000000000000000000000000000000000AC
:40144000000000000000000000000000000000000000000000000000000000000000000000000000000000000000000000000000000000000000000000000000000000006C
:40148000000000000000000000000000000000000000000000000000000000000000000000000000000000000000000000000000000000000000000000000000000000002C
:0200000490006A
:0400000000000005F7
:0200000490105A
:04000000BC90ACAF55
:0200000490303A
:020000009A2B39
:0200000490402A
:4000000000000000000000000000000000000000000000000000000000000000000000000000000000000000000000000000000000000000000000000000000000000000C0
:400040000000000000000000000000000000000000000000000000000000000000000000000000000000000000000000000000000000000000000000000000000000000080
:400080000000000000000000000000000000000000000000000000000000000000000000000000000000000000000000000000000000000000000000000000000000000040
:4000C0000000000000000000000000000000000000000000000000000000000000000000000000000000000000000000000000000000000000000000000000000000000000
:0200000490501A
:0C00000000012E16106900002E34AA9496
:00000001FF